{
  "contractName": "Farm",
  "abi": [
    {
      "inputs": [],
      "stateMutability": "nonpayable",
      "type": "constructor"
    },
    {
      "anonymous": false,
      "inputs": [
        {
          "indexed": true,
          "internalType": "address",
          "name": "owner",
          "type": "address"
        },
        {
          "indexed": true,
          "internalType": "address",
          "name": "approved",
          "type": "address"
        },
        {
          "indexed": true,
          "internalType": "uint256",
          "name": "tokenId",
          "type": "uint256"
        }
      ],
      "name": "Approval",
      "type": "event"
    },
    {
      "anonymous": false,
      "inputs": [
        {
          "indexed": true,
          "internalType": "address",
          "name": "owner",
          "type": "address"
        },
        {
          "indexed": true,
          "internalType": "address",
          "name": "operator",
          "type": "address"
        },
        {
          "indexed": false,
          "internalType": "bool",
          "name": "approved",
          "type": "bool"
        }
      ],
      "name": "ApprovalForAll",
      "type": "event"
    },
    {
      "anonymous": false,
      "inputs": [
        {
          "indexed": true,
          "internalType": "address",
          "name": "from",
          "type": "address"
        },
        {
          "indexed": true,
          "internalType": "address",
          "name": "to",
          "type": "address"
        },
        {
          "indexed": true,
          "internalType": "uint256",
          "name": "tokenId",
          "type": "uint256"
        }
      ],
      "name": "Transfer",
      "type": "event"
    },
    {
      "anonymous": false,
      "inputs": [
        {
          "indexed": false,
          "internalType": "uint256",
          "name": "IdOfAuction",
          "type": "uint256"
        }
      ],
      "name": "addAuction",
      "type": "event"
    },
    {
      "anonymous": false,
      "inputs": [
        {
          "indexed": false,
          "internalType": "address",
          "name": "breeder",
          "type": "address"
        }
      ],
      "name": "addBreeder",
      "type": "event"
    },
    {
      "inputs": [
        {
          "internalType": "uint256",
          "name": "",
          "type": "uint256"
        }
      ],
      "name": "animalArray",
      "outputs": [
        {
          "internalType": "string",
          "name": "race",
          "type": "string"
        },
        {
          "internalType": "uint256",
          "name": "age",
          "type": "uint256"
        },
        {
          "internalType": "string",
          "name": "ville",
          "type": "string"
        },
        {
          "internalType": "string",
          "name": "color",
          "type": "string"
        },
        {
          "internalType": "string",
          "name": "name",
          "type": "string"
        },
        {
          "internalType": "uint256",
          "name": "iDparent1",
          "type": "uint256"
        },
        {
          "internalType": "uint256",
          "name": "iDparent2",
          "type": "uint256"
        },
        {
          "internalType": "bool",
          "name": "fight",
          "type": "bool"
        },
        {
          "internalType": "uint256",
          "name": "fightPrice",
          "type": "uint256"
        }
      ],
      "stateMutability": "view",
      "type": "function",
      "constant": true
    },
    {
      "inputs": [
        {
          "internalType": "address",
          "name": "owner",
          "type": "address"
        }
      ],
      "name": "balanceOf",
      "outputs": [
        {
          "internalType": "uint256",
          "name": "",
          "type": "uint256"
        }
      ],
      "stateMutability": "view",
      "type": "function",
      "constant": true
    },
    {
      "inputs": [
        {
          "internalType": "address",
          "name": "",
          "type": "address"
        }
      ],
      "name": "inList",
      "outputs": [
        {
          "internalType": "bool",
          "name": "",
          "type": "bool"
        }
      ],
      "stateMutability": "view",
      "type": "function",
      "constant": true
    },
    {
      "inputs": [
        {
          "internalType": "uint256",
          "name": "tokenId",
          "type": "uint256"
        }
      ],
      "name": "ownerOf",
      "outputs": [
        {
          "internalType": "address",
          "name": "",
          "type": "address"
        }
      ],
      "stateMutability": "view",
      "type": "function",
      "constant": true
    },
    {
      "inputs": [
        {
          "internalType": "bytes4",
          "name": "interfaceId",
          "type": "bytes4"
        }
      ],
      "name": "supportsInterface",
      "outputs": [
        {
          "internalType": "bool",
          "name": "",
          "type": "bool"
        }
      ],
      "stateMutability": "view",
      "type": "function",
      "constant": true
    },
    {
      "inputs": [],
      "name": "tokena",
      "outputs": [
        {
          "internalType": "string",
          "name": "",
          "type": "string"
        }
      ],
      "stateMutability": "view",
      "type": "function",
      "constant": true
    },
    {
      "inputs": [],
      "name": "getName",
      "outputs": [
        {
          "internalType": "string",
          "name": "",
          "type": "string"
        }
      ],
      "stateMutability": "view",
      "type": "function",
      "constant": true
    },
    {
      "inputs": [],
      "name": "totalSupply",
      "outputs": [
        {
          "internalType": "uint256",
          "name": "total",
          "type": "uint256"
        }
      ],
      "stateMutability": "view",
      "type": "function",
      "constant": true
    },
    {
      "inputs": [
        {
          "internalType": "address",
          "name": "breeder",
          "type": "address"
        }
      ],
      "name": "registerBreeder",
      "outputs": [],
      "stateMutability": "nonpayable",
      "type": "function"
    },
    {
      "inputs": [
        {
          "internalType": "uint256",
          "name": "animalID",
          "type": "uint256"
        }
      ],
      "name": "AnimalInformation",
      "outputs": [
        {
          "internalType": "string",
          "name": "race",
          "type": "string"
        },
        {
          "internalType": "uint256",
          "name": "age",
          "type": "uint256"
        },
        {
          "internalType": "string",
          "name": "ville",
          "type": "string"
        },
        {
          "internalType": "string",
          "name": "color",
          "type": "string"
        },
        {
          "internalType": "string",
          "name": "name",
          "type": "string"
        },
        {
          "internalType": "bool",
          "name": "fight",
          "type": "bool"
        },
        {
          "internalType": "uint256",
          "name": "fightPrice",
          "type": "uint256"
        }
      ],
      "stateMutability": "view",
      "type": "function",
      "constant": true
    },
    {
      "inputs": [
        {
          "internalType": "string",
          "name": "race",
          "type": "string"
        },
        {
          "internalType": "uint256",
          "name": "age",
          "type": "uint256"
        },
        {
          "internalType": "string",
          "name": "ville",
          "type": "string"
        },
        {
          "internalType": "string",
          "name": "color",
          "type": "string"
        },
        {
          "internalType": "string",
          "name": "name",
          "type": "string"
        }
      ],
      "name": "declareAnimal",
      "outputs": [],
      "stateMutability": "nonpayable",
      "type": "function"
    },
    {
      "inputs": [
        {
          "internalType": "uint256",
          "name": "tokenId",
          "type": "uint256"
        }
      ],
      "name": "deadAnimal",
      "outputs": [],
      "stateMutability": "nonpayable",
      "type": "function"
    },
    {
      "inputs": [
        {
          "internalType": "uint256",
          "name": "tokenId1",
          "type": "uint256"
        },
        {
          "internalType": "uint256",
          "name": "tokenID2",
          "type": "uint256"
        },
        {
          "internalType": "string",
          "name": "name",
          "type": "string"
        },
        {
          "internalType": "string",
          "name": "color",
          "type": "string"
        }
      ],
      "name": "breedAnimal",
      "outputs": [],
      "stateMutability": "nonpayable",
      "type": "function"
    },
    {
      "inputs": [
        {
          "internalType": "uint256",
          "name": "tokenId",
          "type": "uint256"
        }
      ],
      "name": "createAuction",
      "outputs": [],
      "stateMutability": "nonpayable",
      "type": "function"
    },
    {
      "inputs": [
        {
          "internalType": "uint256",
          "name": "marketplaceID",
          "type": "uint256"
        }
      ],
      "name": "information_marketplace",
      "outputs": [
        {
          "internalType": "uint256",
          "name": "maxprice",
          "type": "uint256"
        },
        {
          "internalType": "address",
          "name": "currentWinner",
          "type": "address"
        },
        {
          "internalType": "bool",
          "name": "state",
          "type": "bool"
        }
      ],
      "stateMutability": "view",
      "type": "function",
      "constant": true
    },
    {
      "inputs": [
        {
          "internalType": "uint256",
          "name": "marketplaceID",
          "type": "uint256"
        }
      ],
      "name": "BidOnAuction",
      "outputs": [],
      "stateMutability": "payable",
      "type": "function",
      "payable": true
    },
    {
      "inputs": [
        {
          "internalType": "uint256",
          "name": "marketplaceID",
          "type": "uint256"
        }
      ],
      "name": "claimAuction",
      "outputs": [],
      "stateMutability": "nonpayable",
      "type": "function"
    },
    {
      "inputs": [
        {
          "internalType": "uint256",
          "name": "animalID",
          "type": "uint256"
        }
      ],
      "name": "proposeToFight",
      "outputs": [],
      "stateMutability": "payable",
      "type": "function",
      "payable": true
    },
    {
      "inputs": [
        {
          "internalType": "uint256",
          "name": "myAnimalID",
          "type": "uint256"
        },
        {
          "internalType": "uint256",
          "name": "fighter",
          "type": "uint256"
        }
      ],
      "name": "agreeToFight",
      "outputs": [],
      "stateMutability": "payable",
      "type": "function",
      "payable": true
    }
  ],
  "bytecode": "0x60806040526001600b553480156200001657600080fd5b506200002f6301ffc9a760e01b6200008e60201b60201c565b620000476380ac58cd60e01b6200008e60201b60201c565b33600560006101000a81548173ffffffffffffffffffffffffffffffffffffffff021916908373ffffffffffffffffffffffffffffffffffffffff16021790555062000197565b63ffffffff60e01b817bffffffffffffffffffffffffffffffffffffffffffffffffffffffff191614156200012b576040517f08c379a000000000000000000000000000000000000000000000000000000000815260040180806020018281038252601c8152602001807f4552433136353a20696e76616c696420696e746572666163652069640000000081525060200191505060405180910390fd5b6001600080837bffffffffffffffffffffffffffffffffffffffffffffffffffffffff19167bffffffffffffffffffffffffffffffffffffffffffffffffffffffff1916815260200190815260200160002060006101000a81548160ff02191690831515021790555050565b613b7f80620001a76000396000f3fe6080604052600436106101145760003560e01c80634794f366116100a0578063c1722d2b11610064578063c1722d2b14610d10578063c747294f14610d48578063d5563f3114610dd8578063ec9b6db914610e13578063ed29e79714610e4e57610114565b80634794f366146109f55780635e14e48f14610a825780636352211e14610bf557806370a0823114610c705780639aafc6c914610cd557610114565b806325b198eb116100e757806325b198eb146104575780632a68f2a9146104c05780632e2e686d146104ee57806335d5308f14610785578063476fd474146109a457610114565b806301ffc9a7146101195780630e72a6871461018b57806317d7de7c1461039c57806318160ddd1461042c575b600080fd5b34801561012557600080fd5b506101716004803603602081101561013c57600080fd5b8101908080357bffffffffffffffffffffffffffffffffffffffffffffffffffffffff19169060200190929190505050610e7c565b604051808215151515815260200191505060405180910390f35b34801561019757600080fd5b506101c4600480360360208110156101ae57600080fd5b8101908080359060200190929190505050610ee3565b60405180806020018881526020018060200180602001806020018715151515815260200186815260200185810385528c818151815260200191508051906020019080838360005b8381101561022657808201518184015260208101905061020b565b50505050905090810190601f1680156102535780820380516001836020036101000a031916815260200191505b5085810384528a818151815260200191508051906020019080838360005b8381101561028c578082015181840152602081019050610271565b50505050905090810190601f1680156102b95780820380516001836020036101000a031916815260200191505b50858103835289818151815260200191508051906020019080838360005b838110156102f25780820151818401526020810190506102d7565b50505050905090810190601f16801561031f5780820380516001836020036101000a031916815260200191505b50858103825288818151815260200191508051906020019080838360005b8381101561035857808201518184015260208101905061033d565b50505050905090810190601f1680156103855780820380516001836020036101000a031916815260200191505b509b50505050505050505050505060405180910390f35b3480156103a857600080fd5b506103b161125a565b6040518080602001828103825283818151815260200191508051906020019080838360005b838110156103f15780820151818401526020810190506103d6565b50505050905090810190601f16801561041e5780820380516001836020036101000a031916815260200191505b509250505060405180910390f35b34801561043857600080fd5b506104416112fc565b6040518082815260200191505060405180910390f35b34801561046357600080fd5b506104a66004803603602081101561047a57600080fd5b81019080803573ffffffffffffffffffffffffffffffffffffffff169060200190929190505050611309565b604051808215151515815260200191505060405180910390f35b6104ec600480360360208110156104d657600080fd5b8101908080359060200190929190505050611329565b005b3480156104fa57600080fd5b50610783600480360360a081101561051157600080fd5b810190808035906020019064010000000081111561052e57600080fd5b82018360208201111561054057600080fd5b8035906020019184600183028401116401000000008311171561056257600080fd5b91908080601f016020809104026020016040519081016040528093929190818152602001838380828437600081840152601f19601f82011690508083019250505050505050919291929080359060200190929190803590602001906401000000008111156105cf57600080fd5b8201836020820111156105e157600080fd5b8035906020019184600183028401116401000000008311171561060357600080fd5b91908080601f016020809104026020016040519081016040528093929190818152602001838380828437600081840152601f19601f8201169050808301925050505050505091929192908035906020019064010000000081111561066657600080fd5b82018360208201111561067857600080fd5b8035906020019184600183028401116401000000008311171561069a57600080fd5b91908080601f016020809104026020016040519081016040528093929190818152602001838380828437600081840152601f19601f820116905080830192505050505050509192919290803590602001906401000000008111156106fd57600080fd5b82018360208201111561070f57600080fd5b8035906020019184600183028401116401000000008311171561073157600080fd5b91908080601f016020809104026020016040519081016040528093929190818152602001838380828437600081840152601f19601f820116905080830192505050505050509192919290505050611690565b005b34801561079157600080fd5b506107be600480360360208110156107a857600080fd5b81019080803590602001909291905050506117d9565b60405180806020018a81526020018060200180602001806020018981526020018881526020018715151515815260200186815260200185810385528e818151815260200191508051906020019080838360005b8381101561082c578082015181840152602081019050610811565b50505050905090810190601f1680156108595780820380516001836020036101000a031916815260200191505b5085810384528c818151815260200191508051906020019080838360005b83811015610892578082015181840152602081019050610877565b50505050905090810190601f1680156108bf5780820380516001836020036101000a031916815260200191505b5085810383528b818151815260200191508051906020019080838360005b838110156108f85780820151818401526020810190506108dd565b50505050905090810190601f1680156109255780820380516001836020036101000a031916815260200191505b5085810382528a818151815260200191508051906020019080838360005b8381101561095e578082015181840152602081019050610943565b50505050905090810190601f16801561098b5780820380516001836020036101000a031916815260200191505b509d505050505050505050505050505060405180910390f35b3480156109b057600080fd5b506109f3600480360360208110156109c757600080fd5b81019080803573ffffffffffffffffffffffffffffffffffffffff169060200190929190505050611aa1565b005b348015610a0157600080fd5b50610a2e60048036036020811015610a1857600080fd5b8101908080359060200190929190505050611c68565b604051808481526020018373ffffffffffffffffffffffffffffffffffffffff1673ffffffffffffffffffffffffffffffffffffffff16815260200182151515158152602001935050505060405180910390f35b348015610a8e57600080fd5b50610bf360048036036080811015610aa557600080fd5b81019080803590602001909291908035906020019092919080359060200190640100000000811115610ad657600080fd5b820183602082011115610ae857600080fd5b80359060200191846001830284011164010000000083111715610b0a57600080fd5b91908080601f016020809104026020016040519081016040528093929190818152602001838380828437600081840152601f19601f82011690508083019250505050505050919291929080359060200190640100000000811115610b6d57600080fd5b820183602082011115610b7f57600080fd5b80359060200191846001830284011164010000000083111715610ba157600080fd5b91908080601f016020809104026020016040519081016040528093929190818152602001838380828437600081840152601f19601f820116905080830192505050505050509192919290505050611d07565b005b348015610c0157600080fd5b50610c2e60048036036020811015610c1857600080fd5b8101908080359060200190929190505050611fba565b604051808273ffffffffffffffffffffffffffffffffffffffff1673ffffffffffffffffffffffffffffffffffffffff16815260200191505060405180910390f35b348015610c7c57600080fd5b50610cbf60048036036020811015610c9357600080fd5b81019080803573ffffffffffffffffffffffffffffffffffffffff169060200190929190505050612082565b6040518082815260200191505060405180910390f35b348015610ce157600080fd5b50610d0e60048036036020811015610cf857600080fd5b8101908080359060200190929190505050612157565b005b610d4660048036036040811015610d2657600080fd5b8101908080359060200190929190803590602001909291905050506125ad565b005b348015610d5457600080fd5b50610d5d61294b565b6040518080602001828103825283818151815260200191508051906020019080838360005b83811015610d9d578082015181840152602081019050610d82565b50505050905090810190601f168015610dca5780820380516001836020036101000a031916815260200191505b509250505060405180910390f35b348015610de457600080fd5b50610e1160048036036020811015610dfb57600080fd5b81019080803590602001909291905050506129e9565b005b348015610e1f57600080fd5b50610e4c60048036036020811015610e3657600080fd5b8101908080359060200190929190505050612c48565b005b610e7a60048036036020811015610e6457600080fd5b8101908080359060200190929190505050612c54565b005b6000806000837bffffffffffffffffffffffffffffffffffffffffffffffffffffffff19167bffffffffffffffffffffffffffffffffffffffffffffffffffffffff1916815260200190815260200160002060009054906101000a900460ff169050919050565b60606000606080606060008060088881548110610efc57fe5b906000526020600020906009020160000160088981548110610f1a57fe5b90600052602060002090600902016001015460088a81548110610f3957fe5b906000526020600020906009020160020160088b81548110610f5757fe5b906000526020600020906009020160030160088c81548110610f7557fe5b906000526020600020906009020160040160088d81548110610f9357fe5b906000526020600020906009020160070160009054906101000a900460ff1660088e81548110610fbf57fe5b906000526020600020906009020160080154868054600181600116156101000203166002900480601f0160208091040260200160405190810160405280929190818152602001828054600181600116156101000203166002900480156110665780601f1061103b57610100808354040283529160200191611066565b820191906000526020600020905b81548152906001019060200180831161104957829003601f168201915b50505050509650848054600181600116156101000203166002900480601f0160208091040260200160405190810160405280929190818152602001828054600181600116156101000203166002900480156111025780601f106110d757610100808354040283529160200191611102565b820191906000526020600020905b8154815290600101906020018083116110e557829003601f168201915b50505050509450838054600181600116156101000203166002900480601f01602080910402602001604051908101604052809291908181526020018280546001816001161561010002031660029004801561119e5780601f106111735761010080835404028352916020019161119e565b820191906000526020600020905b81548152906001019060200180831161118157829003601f168201915b50505050509350828054600181600116156101000203166002900480601f01602080910402602001604051908101604052809291908181526020018280546001816001161561010002031660029004801561123a5780601f1061120f5761010080835404028352916020019161123a565b820191906000526020600020905b81548152906001019060200180831161121d57829003601f168201915b505050505092509650965096509650965096509650919395979092949650565b606060068054600181600116156101000203166002900480601f0160208091040260200160405190810160405280929190818152602001828054600181600116156101000203166002900480156112f25780601f106112c7576101008083540402835291602001916112f2565b820191906000526020600020905b8154815290600101906020018083116112d557829003601f168201915b5050505050905090565b6000600880549050905090565b60076020528060005260406000206000915054906101000a900460ff1681565b80600073ffffffffffffffffffffffffffffffffffffffff16600a828154811061134f57fe5b906000526020600020906007020160040160009054906101000a900473ffffffffffffffffffffffffffffffffffffffff1673ffffffffffffffffffffffffffffffffffffffff16141561140b576040517f08c379a000000000000000000000000000000000000000000000000000000000815260040180806020018281038252601a8152602001807f4d61726b6574706c6163652073686f756c64206265206f70656e00000000000081525060200191505060405180910390fd5b6202a300600a838154811061141c57fe5b9060005260206000209060070201600101540142111561146e576000600a838154811061144557fe5b906000526020600020906007020160060160006101000a81548160ff0219169083151502179055505b60011515600a838154811061147f57fe5b906000526020600020906007020160060160009054906101000a900460ff161515146114f6576040517f08c379a000000000000000000000000000000000000000000000000000000000815260040180806020018281038252602d8152602001806139db602d913960400191505060405180910390fd5b34600a838154811061150457fe5b906000526020600020906007020160050154101561164457600a828154811061152957fe5b906000526020600020906007020160030160009054906101000a900473ffffffffffffffffffffffffffffffffffffffff1673ffffffffffffffffffffffffffffffffffffffff166108fc600a848154811061158157fe5b9060005260206000209060070201600501549081150290604051600060405180830381858888f193505050501580156115be573d6000803e3d6000fd5b5034600a83815481106115cd57fe5b90600052602060002090600702016005018190555033600a83815481106115f057fe5b906000526020600020906007020160030160006101000a81548173ffffffffffffffffffffffffffffffffffffffff021916908373ffffffffffffffffffffffffffffffffffffffff16021790555061168c565b3373ffffffffffffffffffffffffffffffffffffffff166108fc349081150290604051600060405180830381858888f1935050505015801561168a573d6000803e3d6000fd5b505b5050565b6008604051806101200160405280878152602001868152602001858152602001848152602001838152602001600081526020016000815260200160001515815260200160008152509080600181540180825580915050600190039060005260206000209060090201600090919091909150600082015181600001908051906020019061171d9291906138ba565b506020820151816001015560408201518160020190805190602001906117449291906138ba565b5060608201518160030190805190602001906117619291906138ba565b50608082015181600401908051906020019061177e9291906138ba565b5060a0820151816005015560c0820151816006015560e08201518160070160006101000a81548160ff021916908315150217905550610100820151816008015550506117d233600160088054905003612d5a565b5050505050565b600881815481106117e657fe5b9060005260206000209060090201600091509050806000018054600181600116156101000203166002900480601f0160208091040260200160405190810160405280929190818152602001828054600181600116156101000203166002900480156118925780601f1061186757610100808354040283529160200191611892565b820191906000526020600020905b81548152906001019060200180831161187557829003601f168201915b505050505090806001015490806002018054600181600116156101000203166002900480601f0160208091040260200160405190810160405280929190818152602001828054600181600116156101000203166002900480156119365780601f1061190b57610100808354040283529160200191611936565b820191906000526020600020905b81548152906001019060200180831161191957829003601f168201915b505050505090806003018054600181600116156101000203166002900480601f0160208091040260200160405190810160405280929190818152602001828054600181600116156101000203166002900480156119d45780601f106119a9576101008083540402835291602001916119d4565b820191906000526020600020905b8154815290600101906020018083116119b757829003601f168201915b505050505090806004018054600181600116156101000203166002900480601f016020809104026020016040519081016040528092919081815260200182805460018160011615610100020316600290048015611a725780601f10611a4757610100808354040283529160200191611a72565b820191906000526020600020905b815481529060010190602001808311611a5557829003601f168201915b5050505050908060050154908060060154908060070160009054906101000a900460ff16908060080154905089565b600560009054906101000a900473ffffffffffffffffffffffffffffffffffffffff1673ffffffffffffffffffffffffffffffffffffffff163373ffffffffffffffffffffffffffffffffffffffff1614611b47576040517f08c379a0000000000000000000000000000000000000000000000000000000008152600401808060200182810382526021815260200180613b046021913960400191505060405180910390fd5b6009819080600181540180825580915050600190039060005260206000200160009091909190916101000a81548173ffffffffffffffffffffffffffffffffffffffff021916908373ffffffffffffffffffffffffffffffffffffffff1602179055506001600760008373ffffffffffffffffffffffffffffffffffffffff1673ffffffffffffffffffffffffffffffffffffffff16815260200190815260200160002060006101000a81548160ff0219169083151502179055507f07c4bdeb5db0bd14ff301a05f4d029a128399c773e8bd694ace128502b09db0081604051808273ffffffffffffffffffffffffffffffffffffffff1673ffffffffffffffffffffffffffffffffffffffff16815260200191505060405180910390a150565b6000806000600a8481548110611c7a57fe5b906000526020600020906007020160050154600a8581548110611c9957fe5b906000526020600020906007020160030160009054906101000a900473ffffffffffffffffffffffffffffffffffffffff16600a8681548110611cd857fe5b906000526020600020906007020160060160009054906101000a900460ff168191509250925092509193909250565b600860405180610120016040528060088781548110611d2257fe5b90600052602060002090600902016000018054600181600116156101000203166002900480601f016020809104026020016040519081016040528092919081815260200182805460018160011615610100020316600290048015611dc75780601f10611d9c57610100808354040283529160200191611dc7565b820191906000526020600020905b815481529060010190602001808311611daa57829003601f168201915b505050505081526020016000815260200160088781548110611de557fe5b90600052602060002090600902016002018054600181600116156101000203166002900480601f016020809104026020016040519081016040528092919081815260200182805460018160011615610100020316600290048015611e8a5780601f10611e5f57610100808354040283529160200191611e8a565b820191906000526020600020905b815481529060010190602001808311611e6d57829003601f168201915b50505050508152602001838152602001848152602001868152602001858152602001600015158152602001600081525090806001815401808255809150506001900390600052602060002090600902016000909190919091506000820151816000019080519060200190611eff9291906138ba565b50602082015181600101556040820151816002019080519060200190611f269291906138ba565b506060820151816003019080519060200190611f439291906138ba565b506080820151816004019080519060200190611f609291906138ba565b5060a0820151816005015560c0820151816006015560e08201518160070160006101000a81548160ff02191690831515021790555061010082015181600801555050611fb433600160088054905003612d5a565b50505050565b6000806001600084815260200190815260200160002060009054906101000a900473ffffffffffffffffffffffffffffffffffffffff169050600073ffffffffffffffffffffffffffffffffffffffff168173ffffffffffffffffffffffffffffffffffffffff161415612079576040517f08c379a0000000000000000000000000000000000000000000000000000000008152600401808060200182810382526029815260200180613a326029913960400191505060405180910390fd5b80915050919050565b60008073ffffffffffffffffffffffffffffffffffffffff168273ffffffffffffffffffffffffffffffffffffffff161415612109576040517f08c379a000000000000000000000000000000000000000000000000000000000815260040180806020018281038252602a815260200180613a08602a913960400191505060405180910390fd5b612150600360008473ffffffffffffffffffffffffffffffffffffffff1673ffffffffffffffffffffffffffffffffffffffff168152602001908152602001600020612f7e565b9050919050565b80600073ffffffffffffffffffffffffffffffffffffffff16600a828154811061217d57fe5b906000526020600020906007020160040160009054906101000a900473ffffffffffffffffffffffffffffffffffffffff1673ffffffffffffffffffffffffffffffffffffffff161415612239576040517f08c379a000000000000000000000000000000000000000000000000000000000815260040180806020018281038252601a8152602001807f4d61726b6574706c6163652073686f756c64206265206f70656e00000000000081525060200191505060405180910390fd5b6202a300600a838154811061224a57fe5b9060005260206000209060070201600101540142111561229c576000600a838154811061227357fe5b906000526020600020906007020160060160006101000a81548160ff0219169083151502179055505b60001515600a83815481106122ad57fe5b906000526020600020906007020160060160009054906101000a900460ff16151514612341576040517f08c379a00000000000000000000000000000000000000000000000000000000081526004018080602001828103825260188152602001807f4d61726b6574506c616365206d757374206265206f766572000000000000000081525060200191505060405180910390fd5b3373ffffffffffffffffffffffffffffffffffffffff16600a838154811061236557fe5b906000526020600020906007020160030160009054906101000a900473ffffffffffffffffffffffffffffffffffffffff1673ffffffffffffffffffffffffffffffffffffffff1614612403576040517f08c379a0000000000000000000000000000000000000000000000000000000008152600401808060200182810382526023815260200180613a5b6023913960400191505060405180910390fd5b6124a8600a838154811061241357fe5b906000526020600020906007020160040160009054906101000a900473ffffffffffffffffffffffffffffffffffffffff16600a848154811061245257fe5b906000526020600020906007020160030160009054906101000a900473ffffffffffffffffffffffffffffffffffffffff16600a858154811061249157fe5b906000526020600020906007020160020154612f8c565b600a82815481106124b557fe5b906000526020600020906007020160040160009054906101000a900473ffffffffffffffffffffffffffffffffffffffff1673ffffffffffffffffffffffffffffffffffffffff166108fc600a848154811061250d57fe5b9060005260206000209060070201600501549081150290604051600060405180830381858888f1935050505015801561254a573d6000803e3d6000fd5b506000600a838154811061255a57fe5b906000526020600020906007020160040160006101000a81548173ffffffffffffffffffffffffffffffffffffffff021916908373ffffffffffffffffffffffffffffffffffffffff1602179055505050565b3373ffffffffffffffffffffffffffffffffffffffff166125cd83611fba565b73ffffffffffffffffffffffffffffffffffffffff1614612656576040517f08c379a000000000000000000000000000000000000000000000000000000000815260040180806020018281038252601f8152602001807f6d75737420626520746865206f776e6572206f662074686520616e696d616c0081525060200191505060405180910390fd5b600115156008828154811061266757fe5b906000526020600020906009020160070160009054906101000a900460ff161515146126fb576040517f08c379a000000000000000000000000000000000000000000000000000000000815260040180806020018281038252601b8152602001807f616476657273617279206d75737420626520612066696768746572000000000081525060200191505060405180910390fd5b346008828154811061270957fe5b90600052602060002090600902016008015414612771576040517f08c379a000000000000000000000000000000000000000000000000000000000815260040180806020018281038252602b815260200180613960602b913960400191505060405180910390fd5b6008828154811061277e57fe5b9060005260206000209060090201600101546008828154811061279d57fe5b9060005260206000209060090201600101541115612829576127be81611fba565b73ffffffffffffffffffffffffffffffffffffffff166108fc600883815481106127e457fe5b90600052602060002090600902016008015434019081150290604051600060405180830381858888f19350505050158015612823573d6000803e3d6000fd5b50612891565b3373ffffffffffffffffffffffffffffffffffffffff166108fc6008838154811061285057fe5b90600052602060002090600902016008015434019081150290604051600060405180830381858888f1935050505015801561288f573d6000803e3d6000fd5b505b6000600882815481106128a057fe5b906000526020600020906009020160070160006101000a81548160ff0219169083151502179055506000600883815481106128d757fe5b906000526020600020906009020160070160006101000a81548160ff02191690831515021790555060006008828154811061290e57fe5b90600052602060002090600902016008018190555060006008838154811061293257fe5b9060005260206000209060090201600801819055505050565b60068054600181600116156101000203166002900480601f0160208091040260200160405190810160405280929190818152602001828054600181600116156101000203166002900480156129e15780601f106129b6576101008083540402835291602001916129e1565b820191906000526020600020905b8154815290600101906020018083116129c457829003601f168201915b505050505081565b3373ffffffffffffffffffffffffffffffffffffffff16612a0982611fba565b73ffffffffffffffffffffffffffffffffffffffff1614612a92576040517f08c379a000000000000000000000000000000000000000000000000000000000815260040180806020018281038252601f8152602001807f6d75737420626520746865206f776e6572206f662074686520616e696d616c0081525060200191505060405180910390fd5b600a6040518060e00160405280600b5481526020014281526020018381526020013373ffffffffffffffffffffffffffffffffffffffff1681526020013373ffffffffffffffffffffffffffffffffffffffff1681526020016000815260200160011515815250908060018154018082558091505060019003906000526020600020906007020160009091909190915060008201518160000155602082015181600101556040820151816002015560608201518160030160006101000a81548173ffffffffffffffffffffffffffffffffffffffff021916908373ffffffffffffffffffffffffffffffffffffffff16021790555060808201518160040160006101000a81548173ffffffffffffffffffffffffffffffffffffffff021916908373ffffffffffffffffffffffffffffffffffffffff16021790555060a0820151816005015560c08201518160060160006101000a81548160ff02191690831515021790555050506001600b5401600b819055507fd95bd321173ff68af8efc993fecedf4fcf8e355a66089b27b81405054dc3bb2e6001600a80549050036040518082815260200191505060405180910390a150565b612c5181613002565b50565b3373ffffffffffffffffffffffffffffffffffffffff16612c7482611fba565b73ffffffffffffffffffffffffffffffffffffffff1614612cfd576040517f08c379a000000000000000000000000000000000000000000000000000000000815260040180806020018281038252601f8152602001807f6d75737420626520746865206f776e6572206f662074686520616e696d616c0081525060200191505060405180910390fd5b600160088281548110612d0c57fe5b906000526020600020906009020160070160006101000a81548160ff0219169083151502179055503460088281548110612d4257fe5b90600052602060002090600902016008018190555050565b600073ffffffffffffffffffffffffffffffffffffffff168273ffffffffffffffffffffffffffffffffffffffff161415612dfd576040517f08c379a00000000000000000000000000000000000000000000000000000000081526004018080602001828103825260208152602001807f4552433732313a206d696e7420746f20746865207a65726f206164647265737381525060200191505060405180910390fd5b612e0681613017565b15612e79576040517f08c379a000000000000000000000000000000000000000000000000000000000815260040180806020018281038252601c8152602001807f4552433732313a20746f6b656e20616c7265616479206d696e7465640000000081525060200191505060405180910390fd5b612e8560008383613089565b816001600083815260200190815260200160002060006101000a81548173ffffffffffffffffffffffffffffffffffffffff021916908373ffffffffffffffffffffffffffffffffffffffff160217905550612f1e600360008473ffffffffffffffffffffffffffffffffffffffff1673ffffffffffffffffffffffffffffffffffffffff16815260200190815260200160002061308e565b808273ffffffffffffffffffffffffffffffffffffffff16600073ffffffffffffffffffffffffffffffffffffffff167fddf252ad1be2c89b69c2b068fc378daa952ba7f163c4a11628f55a4df523b3ef60405160405180910390a45050565b600081600001549050919050565b612f9d612f976130a4565b826130ac565b612ff2576040517f08c379a0000000000000000000000000000000000000000000000000000000008152600401808060200182810382526031815260200180613ad36031913960400191505060405180910390fd5b612ffd8383836131a0565b505050565b61301461300e82611fba565b82613408565b50565b6000806001600084815260200190815260200160002060009054906101000a900473ffffffffffffffffffffffffffffffffffffffff169050600073ffffffffffffffffffffffffffffffffffffffff168173ffffffffffffffffffffffffffffffffffffffff161415915050919050565b505050565b6001816000016000828254019250508190555050565b600033905090565b60006130b782613017565b61310c576040517f08c379a000000000000000000000000000000000000000000000000000000000815260040180806020018281038252602c8152602001806139af602c913960400191505060405180910390fd5b600061311783611fba565b90508073ffffffffffffffffffffffffffffffffffffffff168473ffffffffffffffffffffffffffffffffffffffff16148061318657508373ffffffffffffffffffffffffffffffffffffffff1661316e846135a5565b73ffffffffffffffffffffffffffffffffffffffff16145b8061319757506131968185613640565b5b91505092915050565b8273ffffffffffffffffffffffffffffffffffffffff166131c082611fba565b73ffffffffffffffffffffffffffffffffffffffff161461322c576040517f08c379a0000000000000000000000000000000000000000000000000000000008152600401808060200182810382526029815260200180613aaa6029913960400191505060405180910390fd5b600073ffffffffffffffffffffffffffffffffffffffff168273ffffffffffffffffffffffffffffffffffffffff1614156132b2576040517f08c379a000000000000000000000000000000000000000000000000000000000815260040180806020018281038252602481526020018061398b6024913960400191505060405180910390fd5b6132bd838383613089565b6132c86000826136d4565b61330f600360008573ffffffffffffffffffffffffffffffffffffffff1673ffffffffffffffffffffffffffffffffffffffff16815260200190815260200160002061378d565b613356600360008473ffffffffffffffffffffffffffffffffffffffff1673ffffffffffffffffffffffffffffffffffffffff16815260200190815260200160002061308e565b816001600083815260200190815260200160002060006101000a81548173ffffffffffffffffffffffffffffffffffffffff021916908373ffffffffffffffffffffffffffffffffffffffff160217905550808273ffffffffffffffffffffffffffffffffffffffff168473ffffffffffffffffffffffffffffffffffffffff167fddf252ad1be2c89b69c2b068fc378daa952ba7f163c4a11628f55a4df523b3ef60405160405180910390a4505050565b8173ffffffffffffffffffffffffffffffffffffffff1661342882611fba565b73ffffffffffffffffffffffffffffffffffffffff1614613494576040517f08c379a0000000000000000000000000000000000000000000000000000000008152600401808060200182810382526025815260200180613b256025913960400191505060405180910390fd5b6134a082600083613089565b6134ab6000826136d4565b6134f2600360008473ffffffffffffffffffffffffffffffffffffffff1673ffffffffffffffffffffffffffffffffffffffff16815260200190815260200160002061378d565b60006001600083815260200190815260200160002060006101000a81548173ffffffffffffffffffffffffffffffffffffffff021916908373ffffffffffffffffffffffffffffffffffffffff16021790555080600073ffffffffffffffffffffffffffffffffffffffff168373ffffffffffffffffffffffffffffffffffffffff167fddf252ad1be2c89b69c2b068fc378daa952ba7f163c4a11628f55a4df523b3ef60405160405180910390a45050565b60006135b082613017565b613605576040517f08c379a000000000000000000000000000000000000000000000000000000000815260040180806020018281038252602c815260200180613a7e602c913960400191505060405180910390fd5b6002600083815260200190815260200160002060009054906101000a900473ffffffffffffffffffffffffffffffffffffffff169050919050565b6000600460008473ffffffffffffffffffffffffffffffffffffffff1673ffffffffffffffffffffffffffffffffffffffff16815260200190815260200160002060008373ffffffffffffffffffffffffffffffffffffffff1673ffffffffffffffffffffffffffffffffffffffff16815260200190815260200160002060009054906101000a900460ff16905092915050565b816002600083815260200190815260200160002060006101000a81548173ffffffffffffffffffffffffffffffffffffffff021916908373ffffffffffffffffffffffffffffffffffffffff160217905550808273ffffffffffffffffffffffffffffffffffffffff1661374783611fba565b73ffffffffffffffffffffffffffffffffffffffff167f8c5be1e5ebec7d5bd14f71427d1e84f3dd0314c0f7b2291e5b200ac8c7c3b92560405160405180910390a45050565b6137a5600182600001546137b090919063ffffffff16565b816000018190555050565b60006137f283836040518060400160405280601e81526020017f536166654d6174683a207375627472616374696f6e206f766572666c6f7700008152506137fa565b905092915050565b60008383111582906138a7576040517f08c379a00000000000000000000000000000000000000000000000000000000081526004018080602001828103825283818151815260200191508051906020019080838360005b8381101561386c578082015181840152602081019050613851565b50505050905090810190601f1680156138995780820380516001836020036101000a031916815260200191505b509250505060405180910390fd5b5060008385039050809150509392505050565b828054600181600116156101000203166002900490600052602060002090601f016020900481019282601f106138fb57805160ff1916838001178555613929565b82800160010185558215613929579182015b8281111561392857825182559160200191906001019061390d565b5b509050613936919061393a565b5090565b61395c91905b80821115613958576000816000905550600101613940565b5090565b9056fe616476657273617279206d75737420707574207468652073616d6520616d6f756e74206f66206d6f6e65794552433732313a207472616e7366657220746f20746865207a65726f20616464726573734552433732313a206f70657261746f7220717565727920666f72206e6f6e6578697374656e7420746f6b656e4d61726b6574506c616365206d757374206265206f70656e20746f2070726f706f7365206e65772070726963654552433732313a2062616c616e636520717565727920666f7220746865207a65726f20616464726573734552433732313a206f776e657220717565727920666f72206e6f6e6578697374656e7420746f6b656e4d75737420626520746865206e6577206f776e6572206f662074686520616e696d616c4552433732313a20617070726f76656420717565727920666f72206e6f6e6578697374656e7420746f6b656e4552433732313a207472616e73666572206f6620746f6b656e2074686174206973206e6f74206f776e4552433732313a207472616e736665722063616c6c6572206973206e6f74206f776e6572206e6f7220617070726f7665644d75737420626520746865206f776e6572206f662074686520636f6e74726163744552433732313a206275726e206f6620746f6b656e2074686174206973206e6f74206f776ea2646970667358221220ff0bf7d7faf8610d7e22446fc69325dad9b74b1d9526654ef03e931ea6d0297764736f6c63430006000033",
  "source": "pragma solidity ^0.6.0;\n\nimport \"./ERC721.sol\";\n\ncontract Farm is ERC721{\n    address payable private contractOwner;\n\n string public tokena;\n    struct animal{\n        string race;\n        uint256 age;\n        string ville;\n        string color;\n        string name;\n        uint256 iDparent1;\n        uint256 iDparent2;\n        bool fight;\n        uint256 fightPrice;\n    }\n    struct enchere{\n        uint256 Idmarketplace;\n        uint start;\n        uint256 animalID;\n        address payable currentOwner;\n        address payable firstOwner;\n        uint256 maxPrice;\n        bool state;\n    }\n    event addBreeder (address breeder);\n    event addAuction(uint256 IdOfAuction);\n    mapping(address=>bool)public inList;\n    animal[] public animalArray;\n    address[] private breederArray;\n    enchere[] private allRoom;\n    uint256 private marketplace =1;\n\n    constructor()public{\n        contractOwner = msg.sender;\n    }\n    modifier ownerOfContract(){\n        require(msg.sender == contractOwner,\"Must be the owner of the contract\");\n        _;\n    }\n    modifier marketPlaceOpen(uint256 IDmarketplace){\n        require(allRoom[IDmarketplace].firstOwner != address(0),\"Marketplace should be open\");\n        _;\n    }\n function getName() public view returns (string memory){\n        return tokena;\n    }   \n    function totalSupply() public view returns (uint256 total){\n        return animalArray.length;\n    }\n    function registerBreeder(address breeder) public ownerOfContract {\n        breederArray.push(breeder);\n        inList[breeder] = true;\n        emit addBreeder(breeder);\n    }\n    function AnimalInformation(uint256 animalID) public view returns(string memory race,\n        uint256 age,\n        string memory ville,\n        string memory color,\n        string memory name,\n        bool fight,\n        uint256 fightPrice){\n        return(animalArray[animalID].race,animalArray[animalID].age,animalArray[animalID].ville,\n        animalArray[animalID].color,animalArray[animalID].name,animalArray[animalID].fight,animalArray[animalID].fightPrice);\n    }\n    function declareAnimal(string memory race, uint256 age, string memory ville,string memory color, string memory name) public {\n        animalArray.push(animal(race, age, ville, color, name,0,0,false,0));\n        _mint(msg.sender, (animalArray.length-1));\n    }\n    function deadAnimal(uint256 tokenId) public{\n        _burn(tokenId);\n    }\n    function breedAnimal(uint256 tokenId1, uint256 tokenID2, string memory name,string memory color) public{\n        animalArray.push(animal(animalArray[tokenId1].race,0, animalArray[tokenId1].ville,color,name,tokenId1,tokenID2,false,0));\n        _mint(msg.sender, (animalArray.length-1));\n    }\n    function createAuction(uint256 tokenId) public{\n        require(ownerOf(tokenId)==msg.sender, \"must be the owner of the animal\");\n        allRoom.push(enchere(marketplace, (block.timestamp), tokenId, msg.sender, msg.sender,0, true));\n        marketplace = marketplace+1;\n        emit addAuction(allRoom.length-1);\n    }\n    function information_marketplace(uint256 marketplaceID) public view returns(uint256 maxprice, address currentWinner, bool state){\n        return(allRoom[marketplaceID].maxPrice, allRoom[marketplaceID].currentOwner,allRoom[marketplaceID].state );\n    }\n    function BidOnAuction(uint256 marketplaceID) public payable marketPlaceOpen(marketplaceID){\n        if(now > allRoom[marketplaceID].start + 2 days){\n            allRoom[marketplaceID].state = false;\n        }\n        require(allRoom[marketplaceID].state == true,\"MarketPlace must be open to propose new price\");\n        if(allRoom[marketplaceID].maxPrice < msg.value){\n            allRoom[marketplaceID].currentOwner.transfer(allRoom[marketplaceID].maxPrice);\n            allRoom[marketplaceID].maxPrice = msg.value;\n            allRoom[marketplaceID].currentOwner = msg.sender;\n        }else{\n            msg.sender.transfer(msg.value);\n        }\n    }\n    function claimAuction(uint256 marketplaceID) public marketPlaceOpen(marketplaceID) {\n        if(now > allRoom[marketplaceID].start + 2 days){\n            allRoom[marketplaceID].state = false;\n        }\n        require(allRoom[marketplaceID].state == false, \"MarketPlace must be over\");\n        require(allRoom[marketplaceID].currentOwner==msg.sender,\"Must be the new owner of the animal\");\n        transferFrom(allRoom[marketplaceID].firstOwner, allRoom[marketplaceID].currentOwner, allRoom[marketplaceID].animalID);\n        allRoom[marketplaceID].firstOwner.transfer(allRoom[marketplaceID].maxPrice);\n        allRoom[marketplaceID].firstOwner = address(0);\n    }\n    function proposeToFight(uint256 animalID)public payable {\n        require(ownerOf(animalID)==msg.sender, \"must be the owner of the animal\");\n        animalArray[animalID].fight = true;\n        animalArray[animalID].fightPrice = msg.value;\n    }\n    function agreeToFight(uint256 myAnimalID, uint256 fighter) public payable{\n        require(ownerOf(myAnimalID)==msg.sender, \"must be the owner of the animal\");\n        require(animalArray[fighter].fight==true,\"adversary must be a fighter\");\n        require(animalArray[fighter].fightPrice==msg.value,\"adversary must put the same amount of money\");\n        if(animalArray[fighter].age > animalArray[myAnimalID].age){\n            payable(ownerOf(fighter)).transfer(msg.value+animalArray[fighter].fightPrice);\n        }else{\n            msg.sender.transfer(msg.value+animalArray[fighter].fightPrice);\n        }\n        animalArray[fighter].fight = false;\n        animalArray[myAnimalID].fight = false;\n        animalArray[fighter].fightPrice = 0;\n        animalArray[myAnimalID].fightPrice = 0;\n    }\n}\n",
  "sourcePath": "C:\\Users\\user\\Desktop\\NFT_FARM-master\\NFT_FARM-master\\contracts\\Farm.sol",
  "compiler": {
    "name": "solc",
    "version": "0.6.0+commit.26b70077.Emscripten.clang"
  },
  "schemaVersion": "3.0.23",
  "updatedAt": "2020-03-20T09:59:28.570Z",
  "networkType": "ethereum",
  "devdoc": {
    "methods": {
      "balanceOf(address)": {
        "details": "Gets the balance of the specified address.",
        "params": {
          "owner": "address to query the balance of"
        },
        "returns": {
          "_0": "uint256 representing the amount owned by the passed address"
        }
      },
      "ownerOf(uint256)": {
        "details": "Gets the owner of the specified token ID.",
        "params": {
          "tokenId": "uint256 ID of the token to query the owner of"
        },
        "returns": {
          "_0": "address currently marked as the owner of the given token ID"
        }
      },
      "supportsInterface(bytes4)": {
        "details": "See {IERC165-supportsInterface}.     * Time complexity O(1), guaranteed to always use less than 30 000 gas."
      }
    }
  },
  "userdoc": {
    "methods": {}
  }
}